:060000008031562A0000C9
:0800080083018A012000770842
:10001000A0007808A1007908A2007A08A300850151
:1000200091308400801E1628911A1F282008F7009E
:100030002108F8002208F9002308FA00090080319D
:100040002128911E2128230019082000A800A401BE
:10005000A81B241428087F39AA01A9008E30F700B4
:100060002A08F8002908F900FA01F808031D4228B7
:100070007908F800F9010830F702F808031D422852
:10008000F7014A280310F81B4928F90DF80DF7036A
:100090004228F8137708A9007808AA007908AB006D
:1000A0007A08AC002C08B0002B08AF002A08AE007C
:1000B0002908AD00B401B3014830B2008530B10069
:1000C0002D0803192529B900310803192529B9027A
:1000D000031C6F287F30B907031825297528813044
:1000E000B902031C2529031925293908F700F8014D
:1000F000F901FA01B8012E08B700B7172F08B600AA
:100100003008B5001930B9003408B5020318982832
:100110000130B60203189828B70203189828B802CD
:1001200003189828B80AB70AB60A3408B507CA28C7
:100130003308B6020318B3280130B7020318B328F6
:10014000B8020318B328B80AB70A3308B607340848
:10015000B507031CCA28B60A031DCA28B70A031D1F
:10016000CA28B80ACA2832088038B7020318C92832
:100170000130B8020318C928B80A32088038B70716
:100180003308B607031CA728B70A031DA728B80A17
:10019000A7287A14B90BCD28D8280310B50DB60DB1
:1001A000B70DB80D0310FA0DF90DF80DBA0D84282E
:1001B0003A1CE0280310F80CF90CFA0CBA0CE328EE
:1001C000F70303192529BA1B0C290310B50DB60D29
:1001D000B70DB80D3408B5020318F8280130B6027F
:1001E0000318F828B7020318F828B802031C1B29C3
:1001F0003308B602031803290130B7020318032994
:10020000B802031C1B2932088038B70203180C29D6
:100210000130B802031C1B29FA0A031D1B29F90A25
:10022000031D1B29F80A031D1B29F70A0319252999
:10023000F80CF90CFA0C2E08B9003208B906B91FEF
:100240002329F8172929F8132929F701F801F901B9
:10025000FA017708A9007808AA007908AB007A08A3
:10026000AC002C08B0002B08AF002A08AE0029080B
:10027000AD00B401B3010D30B2008630B1002D08DD
:100280000319AF29B50031080319AF29B5070318C1
:1002900050297F30B502031CAF290319AF29542917
:1002A0008130B5070318AF293508F700F801F901C7
:1002B000FA012E08B900B9172F08B8003008B700A6
:1002C0001830B500B601371C7D293408FA07031C25
:1002D0006F29F90A031D6F29F80A0319B6173308A5
:1002E000F907031C7629F80A0319B6173208AF007C
:1002F000AF172F08F8070318B617B60DF80CF90C4E
:10030000FA0CB90CB80CB70C0310B50B622901300C
:10031000F7070318AF29F81B9429B90DFA0DF90D49
:10032000F80DF7030319AF29B91FA529FA0A031D10
:10033000A529F90A031DA529F80A031DA529F80C0A
:10034000F90CFA0CF70A0319AF292E08B600320887
:10035000B606B61FAD29F817B329F813B329F7016C
:10036000F801F901FA017A08AC007908AB007808C5
:10037000AA007708A9008E30F7002908F7022A089A
:10038000F9002B08F800F917F7080319D229031010
:10039000F908031DCE29F8080319D229F90CF80C25
:1003A000F70BC729AA1FD929F809F909F80A03196F
:1003B000F90A01307807A500911280311628F8302B
:1003C0002100990000308C0002308D0022008C0149
:1003D0008D0123009D171D1610309B00A6309E0036
:1003E00022001D109D101D118D110C302500930051
:1003F000940195011E109E100130960022009D115F
:100400001D128C130C3025009A009B019C011E11BB
:100410009E1101309D000030F800053820009C003E
:100420008D309B0025009101980121009116C0306C
:100430008B0402302000A600FA30A700203085008F
:100440000730840000080319332A0530F800F7014B
:10045000F70B282AF80B272A2E30F700F70B2E2A45
:10046000312A800B252AA60B1C2A80316E2A2408EB
:10047000003A0319422A013A0319492A033A031997
:100480004E2A4E2A250091012000250825009800BB
:10049000532A2508250091009801532A8D30250004
:1004A00091009800532A803120006F2A8501840131
:1004B0001F308305103023009B00A6309E00903033
:1004C0009D002000A401A50123008C018D012200C4
:1004D00092019101940193012000DF29372A6E2AAD
:0204E0006300B7
:020000040001F9
:04000E00C23FFF1FCF
:00000001FF
;PIC16F1827
;CRC=B142  CREATED="24-12-18 16:44"
